:020000040800F2
:1000000000000120C10300081104000811040008C9
:100010001104000811040008110400080000000089
:1000200000000000000000000000000011040008B3
:100030000000000000000000110400081104000886
:10004000110400081104000811040008110400083C
:10005000110400081104000811040008110400082C
:10006000110400081104000811040008110400081C
:10007000110400081104000811040008110400080C
:1000800011040008110400081104000811040008FC
:1000900011040008110400081104000811040008EC
:1000A00011040008110400081104000811040008DC
:1000B00011040008110400081104000811040008CC
:1000C00011040008110400081104000811040008BC
:1000D00011040008110400081104000811040008AC
:1000E000110400081104000811040008110400089C
:1000F000110400081104000811040008110400088C
:10010000110400081104000811040008110400087B
:0C0110001104000811040008110400088C
:10011C0010B5054C237833B9044B13B10448AFF335
:10012C0000800123237010BD04000020000000009B
:10013C001404000808B5034B1BB103490348AFF383
:10014C00008008BD00000000080000201404000816
:10015C0070B50D4D0D4C641BA4100026A64209D1A0
:10016C000B4D0C4C00F050F9641BA4100026A64259
:10017C0005D170BD55F8043B98470136EEE755F8AC
:10018C00043B98470136F2E72C0400082C040008C5
:10019C002C0400083404000870477047024B13B15C
:1001AC00024800F005B8704700000000C9010008C3
:1001BC00002301461A46184600F014B838B5074D0E
:1001CC00074C641BA4101CB9BDE8384000F022B9E0
:1001DC00013C55F824309847F5E700BF340400087B
:1001EC00380400082DE9F047DFF874A00646DAF869
:1001FC00000098460F469146FFF7CEFF164B1C6841
:10020C000CB9164C1C606568DAF800001F2D05DD72
:10021C00FFF7C3FF4FF0FF30BDE8F0879EB104EB52
:10022C0085010122C1F88890D4F88831AA40134383
:10023C00C4F88831022EC1F8088102BFD4F88C3181
:10024C001343C4F88C316B1C0235636044F8257081
:10025C00FFF7A3FF0020DFE7240000202800002088
:10026C000000002082B0304A136843F480331360DE
:10027C000023019302E0019B013301932A4B1B687D
:10028C0013F4003F09D1019BB3F5805FF3DD264ADF
:10029C00136823F480331360EDE7234B9A6842F024
:1002AC0000429A609A689A605A6842F080625A607A
:1002BC005A6842F4C6525A605A685A601A6842F038
:1002CC0080721A600023019302E0019B01330193B9
:1002DC00154B1B6813F0807F0DD1019BB3F5805F2C
:1002EC00F3DD114B1A6822F080721A601A6822F43E
:1002FC0080321A60E9E70D4A136843F00203136079
:10030C00094B9A689A609A689A609A689A60064B48
:10031C009B6803F00C03082BF9D1034A136823F0F4
:10032C000103136002B0704700380240003C0240E9
:10033C000B4A136B43F0040313630A4B1A6822F045
:10034C0040621A601A6842F000621A605A6822F41D
:10035C0000525A60DA6822F04062DA60704700BFDF
:10036C000038024000080240024A936943F40053EB
:10037C009361704700080240024A936963F400538A
:10038C00936170470008024008B5FFF76BFFFFF759
:10039C00CFFF0BE00133B3F5804FFBDBFFF7ECFF36
:1003AC00002300E00133B3F5804FFBDBFFF7DCFFEC
:1003BC000023F0E70D488546AFF300800C480D494B
:1003CC000D4A002302E0D458C4500433C4188C42A4
:1003DC00F9D30A4A0A4C002301E013600432A2420A
:1003EC00FBD3FFF7B5FEFFF7CFFFFEE700000120C0
:1003FC000000002004000020380400080400002045
:10040C00B8010020FEE70000F8B500BFF8BC08BC3E
:10041C009E467047F8B500BFF8BC08BC9E467047B6
:08042C00A901000841010008CC
:040434001D0100089E
:040438002000002080
:04000005080003C12B
:00000001FF
