:020000040800F2
:100000000000012031040008810400088104000878
:100010008104000881040008810400080000000039
:100020000000000000000000000000008104000843
:1000300000000000000000008104000881040008A6
:10004000810400088104000881040008810400087C
:10005000810400088104000881040008810400086C
:10006000810400088104000881040008810400085C
:10007000810400088104000881040008810400084C
:10008000810400088104000881040008810400083C
:10009000810400088104000881040008810400082C
:1000A000810400088104000881040008810400081C
:1000B000810400088104000881040008810400080C
:1000C00081040008810400088104000881040008FC
:1000D00081040008810400088104000881040008EC
:1000E00081040008810400088104000881040008DC
:1000F00081040008810400088104000881040008CC
:1001000081040008810400088104000881040008BB
:0C0110008104000881040008810400083C
:10011C0010B5054C237833B9044B13B10448AFF335
:10012C0000800123237010BD04000020000000009B
:10013C008404000808B5034B1BB103490348AFF313
:10014C00008008BD000000000800002084040008A6
:10015C0070B50D4D0D4C641BA4100026A64209D1A0
:10016C000B4D0C4C00F088F9641BA4100026A64221
:10017C0005D170BD55F8043B98470136EEE755F8AC
:10018C00043B98470136F2E79C0400089C040008E5
:10019C009C040008A404000870477047024B13B17C
:1001AC00024800F005B8704700000000C9010008C3
:1001BC00002301461A46184600F014B838B5074D0E
:1001CC00074C641BA4101CB9BDE8384000F05AB9A8
:1001DC00013C55F824309847F5E700BFA40400080B
:1001EC00A80400082DE9F047DFF874A00646DAF8F9
:1001FC00000098460F469146FFF7CEFF164B1C6841
:10020C000CB9164C1C606568DAF800001F2D05DD72
:10021C00FFF7C3FF4FF0FF30BDE8F0879EB104EB52
:10022C0085010122C1F88890D4F88831AA40134383
:10023C00C4F88831022EC1F8088102BFD4F88C3181
:10024C001343C4F88C316B1C0235636044F8257081
:10025C00FFF7A3FF0020DFE7240000202800002088
:10026C00000000200B4A136B43F0040313630A4B8A
:10027C001A6822F040621A605A6822F400525A60DE
:10028C001A6842F000621A60DA6822F04062DA60A2
:10029C00704700BF0038024000080240024A9369D0
:1002AC0043F400539361704700080240024A93697B
:1002BC0063F40053936170470008024082B04B4BCB
:1002CC001A6822F080721A601A6822F001021A6011
:1002DC001A6822F480321A6046F683121A60444A75
:1002EC005A60444900220A609A60586840F48000C1
:1002FC005860586840F4C9405860586840F008008D
:10030C005860586840F440305860086840F002006B
:10031C0008609968996099689960996841F0020140
:10032C009960196841F080711960196841F00101F8
:10033C001960196841F480311960019202E0019B47
:10034C0001330193294B1B6813F0020F0AD1019B57
:10035C00B3F5805FF3DD254A136823F001031360C6
:10036C0002B0704700230193204B1B6813F4003F2D
:10037C0007D1019BB3F5805F0BDC019B013301932B
:10038C00F2E71A4A136863F0010313600023019328
:10039C000CE0164B1A6822F001021A601A6822F45B
:1003AC0080321A60DCE7019B013301930F4B1B6811
:1003BC0013F0007F0DD1019BB3F5805FF3DD0B4B88
:1003CC001A6822F080721A601A6822F001021A6010
:1003DC00C6E7064B9B6803F00C03082BF9D1034AC4
:1003EC00136823F001031360BAE700BF0038024022
:1003FC0010300024003C024008B5FFF75FFFFFF708
:10040C0031FF0BE00133B3F5800FFBDBFFF74EFF41
:10041C00002300E00133B3F5800FFBDBFFF73EFF59
:10042C000023F0E70D488546AFF300800C480D49DA
:10043C000D4A002302E0D458C4500433C4188C4233
:10044C00F9D30A4A0A4C002301E013600432A24299
:10045C00FBD3FFF77DFEFFF7CFFFFEE70000012087
:10046C000000002004000020A80400080400002064
:10047C00B8010020FEE70000F8B500BFF8BC08BCCE
:10048C009E467047F8B500BFF8BC08BC9E46704746
:08049C00A9010008410100085C
:0404A4001D0100082E
:0404A8002000002010
:0400000508000431BA
:00000001FF
