:020000040800F2
:1000000000000120150400086504000865040008CC
:10001000650400086504000865040008000000008D
:10002000000000000000000000000000650400085F
:1000300000000000000000006504000865040008DE
:1000400065040008650400086504000865040008EC
:1000500065040008650400086504000865040008DC
:1000600065040008650400086504000865040008CC
:1000700065040008650400086504000865040008BC
:1000800065040008650400086504000865040008AC
:10009000650400086504000865040008650400089C
:1000A000650400086504000865040008650400088C
:1000B000650400086504000865040008650400087C
:1000C000650400086504000865040008650400086C
:1000D000650400086504000865040008650400085C
:1000E000650400086504000865040008650400084C
:1000F000650400086504000865040008650400083C
:10010000650400086504000865040008650400082B
:0C01100065040008650400086504000890
:10011C0010B5054C237833B9044B13B10448AFF335
:10012C0000800123237010BD04000020000000009B
:10013C006804000808B5034B1BB103490348AFF32F
:10014C00008008BD000000000800002068040008C2
:10015C0070B50D4D0D4C641BA4100026A64209D1A0
:10016C000B4D0C4C00F07AF9641BA4100026A6422F
:10017C0005D170BD55F8043B98470136EEE755F8AC
:10018C00043B98470136F2E780040008800400081D
:10019C00800400088804000870477047024B13B1B4
:1001AC00024800F005B8704700000000C9010008C3
:1001BC00002301461A46184600F014B838B5074D0E
:1001CC00074C641BA4101CB9BDE8384000F04CB9B6
:1001DC00013C55F824309847F5E700BF8804000827
:1001EC008C0400082DE9F047DFF874A00646DAF815
:1001FC00000098460F469146FFF7CEFF164B1C6841
:10020C000CB9164C1C606568DAF800001F2D05DD72
:10021C00FFF7C3FF4FF0FF30BDE8F0879EB104EB52
:10022C0085010122C1F88890D4F88831AA40134383
:10023C00C4F88831022EC1F8088102BFD4F88C3181
:10024C001343C4F88C316B1C0235636044F8257081
:10025C00FFF7A3FF0020DFE7240000202800002088
:10026C00000000200B4A136B43F0040313630A4B8A
:10027C001A6822F040621A605A6822F400525A60DE
:10028C001A6842F000621A60DA6822F04062DA60A2
:10029C00704700BF0038024000080240024A9369D0
:1002AC0043F400539361704700080240024A93697B
:1002BC0063F40053936170470008024082B0444BD2
:1002CC001A6842F001021A601A6842F480321A600D
:1002DC000023019302E0019B013301933C4B1B680B
:1002EC0013F0020F0AD1019BB3F5805FF3DD384A9E
:1002FC00136823F00103136002B0704700230193CD
:10030C00334B1B6813F4003F07D1019BB3F5805F9F
:10031C0027DC019B01330193F2E72D4B1A6862F045
:10032C0001021A602B4A5A605A6842F480025A60E1
:10033C005A6842F4C9425A605A6842F008025A603C
:10034C005A6842F440325A60234A00201060116807
:10035C0041F0020111601A6842F080721A6001903B
:10036C000CE01B4B1A6822F001021A601A6822F486
:10037C0080321A60C0E7019B01330193144B1B6858
:10038C0013F0007F0DD1019BB3F5805FF3DD104BB3
:10039C001A6822F080721A601A6822F001021A6040
:1003AC00AAE70B4B00229A609A689A609A689A6046
:1003BC009A6842F002029A60054B9B6803F00C03AA
:1003CC00082BF9D1024A136823F00103136093E759
:1003DC000038024010300024003C024008B5FFF702
:1003EC006DFFFFF73FFF0BE00133B3F5804FFBDBF5
:1003FC00FFF75CFF002300E00133B3F5804FFBDB1C
:10040C00FFF74CFF0023F0E70D488546AFF3008063
:10041C000C480D490D4A002302E0D458C450043353
:10042C00C4188C42F9D30A4A0A4C002301E0136029
:10043C000432A242FBD3FFF78BFEFFF7CFFFFEE7A0
:10044C000000012000000020040000208C040008A3
:10045C0004000020B8010020FEE70000F8B500BF42
:10046C00F8BC08BC9E467047F8B500BFF8BC08BC89
:04047C009E467047E1
:08048000A90100084101000878
:040488001D0100084A
:04048C00200000202C
:0400000508000415D6
:00000001FF
